{
  "_format": "hh-sol-artifact-1",
  "contractName": "NFTMarketplace",
  "sourceName": "contracts/NFTMarketplace.sol",
  "abi": [
    {
      "inputs": [],
      "stateMutability": "nonpayable",
      "type": "constructor"
    },
    {
      "anonymous": false,
      "inputs": [
        {
          "indexed": true,
          "internalType": "address",
          "name": "owner",
          "type": "address"
        },
        {
          "indexed": true,
          "internalType": "address",
          "name": "approved",
          "type": "address"
        },
        {
          "indexed": true,
          "internalType": "uint256",
          "name": "tokenId",
          "type": "uint256"
        }
      ],
      "name": "Approval",
      "type": "event"
    },
    {
      "anonymous": false,
      "inputs": [
        {
          "indexed": true,
          "internalType": "address",
          "name": "owner",
          "type": "address"
        },
        {
          "indexed": true,
          "internalType": "address",
          "name": "operator",
          "type": "address"
        },
        {
          "indexed": false,
          "internalType": "bool",
          "name": "approved",
          "type": "bool"
        }
      ],
      "name": "ApprovalForAll",
      "type": "event"
    },
    {
      "anonymous": false,
      "inputs": [
        {
          "indexed": true,
          "internalType": "address",
          "name": "from",
          "type": "address"
        },
        {
          "indexed": true,
          "internalType": "address",
          "name": "to",
          "type": "address"
        },
        {
          "indexed": true,
          "internalType": "uint256",
          "name": "tokenId",
          "type": "uint256"
        }
      ],
      "name": "Transfer",
      "type": "event"
    },
    {
      "inputs": [
        {
          "internalType": "address",
          "name": "to",
          "type": "address"
        },
        {
          "internalType": "uint256",
          "name": "tokenId",
          "type": "uint256"
        }
      ],
      "name": "approve",
      "outputs": [],
      "stateMutability": "nonpayable",
      "type": "function"
    },
    {
      "inputs": [
        {
          "internalType": "address",
          "name": "owner",
          "type": "address"
        }
      ],
      "name": "balanceOf",
      "outputs": [
        {
          "internalType": "uint256",
          "name": "",
          "type": "uint256"
        }
      ],
      "stateMutability": "view",
      "type": "function"
    },
    {
      "inputs": [
        {
          "internalType": "string",
          "name": "tokenURI",
          "type": "string"
        },
        {
          "internalType": "uint256",
          "name": "price",
          "type": "uint256"
        }
      ],
      "name": "createToken",
      "outputs": [
        {
          "internalType": "uint256",
          "name": "",
          "type": "uint256"
        }
      ],
      "stateMutability": "payable",
      "type": "function"
    },
    {
      "inputs": [
        {
          "internalType": "uint256",
          "name": "_tokenId",
          "type": "uint256"
        }
      ],
      "name": "executeSale",
      "outputs": [],
      "stateMutability": "payable",
      "type": "function"
    },
    {
      "inputs": [],
      "name": "getAllNFTS",
      "outputs": [
        {
          "components": [
            {
              "internalType": "uint256",
              "name": "tokenId",
              "type": "uint256"
            },
            {
              "internalType": "address payable",
              "name": "owner",
              "type": "address"
            },
            {
              "internalType": "address payable",
              "name": "seller",
              "type": "address"
            },
            {
              "internalType": "uint256",
              "name": "price",
              "type": "uint256"
            },
            {
              "internalType": "bool",
              "name": "currentlyListed",
              "type": "bool"
            }
          ],
          "internalType": "struct NFTMarketplace.ListedToken[]",
          "name": "",
          "type": "tuple[]"
        }
      ],
      "stateMutability": "view",
      "type": "function"
    },
    {
      "inputs": [
        {
          "internalType": "uint256",
          "name": "tokenId",
          "type": "uint256"
        }
      ],
      "name": "getApproved",
      "outputs": [
        {
          "internalType": "address",
          "name": "",
          "type": "address"
        }
      ],
      "stateMutability": "view",
      "type": "function"
    },
    {
      "inputs": [],
      "name": "getCurrentTokenId",
      "outputs": [
        {
          "internalType": "uint256",
          "name": "",
          "type": "uint256"
        }
      ],
      "stateMutability": "view",
      "type": "function"
    },
    {
      "inputs": [],
      "name": "getLatestIdToListedToken",
      "outputs": [
        {
          "components": [
            {
              "internalType": "uint256",
              "name": "tokenId",
              "type": "uint256"
            },
            {
              "internalType": "address payable",
              "name": "owner",
              "type": "address"
            },
            {
              "internalType": "address payable",
              "name": "seller",
              "type": "address"
            },
            {
              "internalType": "uint256",
              "name": "price",
              "type": "uint256"
            },
            {
              "internalType": "bool",
              "name": "currentlyListed",
              "type": "bool"
            }
          ],
          "internalType": "struct NFTMarketplace.ListedToken",
          "name": "",
          "type": "tuple"
        }
      ],
      "stateMutability": "view",
      "type": "function"
    },
    {
      "inputs": [],
      "name": "getListPrice",
      "outputs": [
        {
          "internalType": "uint256",
          "name": "",
          "type": "uint256"
        }
      ],
      "stateMutability": "view",
      "type": "function"
    },
    {
      "inputs": [
        {
          "internalType": "uint256",
          "name": "_tokenId",
          "type": "uint256"
        }
      ],
      "name": "getListedForTokenId",
      "outputs": [
        {
          "components": [
            {
              "internalType": "uint256",
              "name": "tokenId",
              "type": "uint256"
            },
            {
              "internalType": "address payable",
              "name": "owner",
              "type": "address"
            },
            {
              "internalType": "address payable",
              "name": "seller",
              "type": "address"
            },
            {
              "internalType": "uint256",
              "name": "price",
              "type": "uint256"
            },
            {
              "internalType": "bool",
              "name": "currentlyListed",
              "type": "bool"
            }
          ],
          "internalType": "struct NFTMarketplace.ListedToken",
          "name": "",
          "type": "tuple"
        }
      ],
      "stateMutability": "view",
      "type": "function"
    },
    {
      "inputs": [],
      "name": "getMyNFTs",
      "outputs": [
        {
          "components": [
            {
              "internalType": "uint256",
              "name": "tokenId",
              "type": "uint256"
            },
            {
              "internalType": "address payable",
              "name": "owner",
              "type": "address"
            },
            {
              "internalType": "address payable",
              "name": "seller",
              "type": "address"
            },
            {
              "internalType": "uint256",
              "name": "price",
              "type": "uint256"
            },
            {
              "internalType": "bool",
              "name": "currentlyListed",
              "type": "bool"
            }
          ],
          "internalType": "struct NFTMarketplace.ListedToken[]",
          "name": "",
          "type": "tuple[]"
        }
      ],
      "stateMutability": "view",
      "type": "function"
    },
    {
      "inputs": [
        {
          "internalType": "uint256",
          "name": "_tokenId",
          "type": "uint256"
        }
      ],
      "name": "getTokenPrice",
      "outputs": [
        {
          "internalType": "uint256",
          "name": "",
          "type": "uint256"
        }
      ],
      "stateMutability": "view",
      "type": "function"
    },
    {
      "inputs": [
        {
          "internalType": "uint256",
          "name": "",
          "type": "uint256"
        }
      ],
      "name": "idToListedTokens",
      "outputs": [
        {
          "internalType": "uint256",
          "name": "tokenId",
          "type": "uint256"
        },
        {
          "internalType": "address payable",
          "name": "owner",
          "type": "address"
        },
        {
          "internalType": "address payable",
          "name": "seller",
          "type": "address"
        },
        {
          "internalType": "uint256",
          "name": "price",
          "type": "uint256"
        },
        {
          "internalType": "bool",
          "name": "currentlyListed",
          "type": "bool"
        }
      ],
      "stateMutability": "view",
      "type": "function"
    },
    {
      "inputs": [
        {
          "internalType": "address",
          "name": "owner",
          "type": "address"
        },
        {
          "internalType": "address",
          "name": "operator",
          "type": "address"
        }
      ],
      "name": "isApprovedForAll",
      "outputs": [
        {
          "internalType": "bool",
          "name": "",
          "type": "bool"
        }
      ],
      "stateMutability": "view",
      "type": "function"
    },
    {
      "inputs": [],
      "name": "name",
      "outputs": [
        {
          "internalType": "string",
          "name": "",
          "type": "string"
        }
      ],
      "stateMutability": "view",
      "type": "function"
    },
    {
      "inputs": [
        {
          "internalType": "uint256",
          "name": "tokenId",
          "type": "uint256"
        }
      ],
      "name": "ownerOf",
      "outputs": [
        {
          "internalType": "address",
          "name": "",
          "type": "address"
        }
      ],
      "stateMutability": "view",
      "type": "function"
    },
    {
      "inputs": [
        {
          "internalType": "address",
          "name": "from",
          "type": "address"
        },
        {
          "internalType": "address",
          "name": "to",
          "type": "address"
        },
        {
          "internalType": "uint256",
          "name": "tokenId",
          "type": "uint256"
        }
      ],
      "name": "safeTransferFrom",
      "outputs": [],
      "stateMutability": "nonpayable",
      "type": "function"
    },
    {
      "inputs": [
        {
          "internalType": "address",
          "name": "from",
          "type": "address"
        },
        {
          "internalType": "address",
          "name": "to",
          "type": "address"
        },
        {
          "internalType": "uint256",
          "name": "tokenId",
          "type": "uint256"
        },
        {
          "internalType": "bytes",
          "name": "data",
          "type": "bytes"
        }
      ],
      "name": "safeTransferFrom",
      "outputs": [],
      "stateMutability": "nonpayable",
      "type": "function"
    },
    {
      "inputs": [
        {
          "internalType": "address",
          "name": "operator",
          "type": "address"
        },
        {
          "internalType": "bool",
          "name": "approved",
          "type": "bool"
        }
      ],
      "name": "setApprovalForAll",
      "outputs": [],
      "stateMutability": "nonpayable",
      "type": "function"
    },
    {
      "inputs": [
        {
          "internalType": "bytes4",
          "name": "interfaceId",
          "type": "bytes4"
        }
      ],
      "name": "supportsInterface",
      "outputs": [
        {
          "internalType": "bool",
          "name": "",
          "type": "bool"
        }
      ],
      "stateMutability": "view",
      "type": "function"
    },
    {
      "inputs": [],
      "name": "symbol",
      "outputs": [
        {
          "internalType": "string",
          "name": "",
          "type": "string"
        }
      ],
      "stateMutability": "view",
      "type": "function"
    },
    {
      "inputs": [
        {
          "internalType": "uint256",
          "name": "tokenId",
          "type": "uint256"
        }
      ],
      "name": "tokenURI",
      "outputs": [
        {
          "internalType": "string",
          "name": "",
          "type": "string"
        }
      ],
      "stateMutability": "view",
      "type": "function"
    },
    {
      "inputs": [
        {
          "internalType": "address",
          "name": "from",
          "type": "address"
        },
        {
          "internalType": "address",
          "name": "to",
          "type": "address"
        },
        {
          "internalType": "uint256",
          "name": "tokenId",
          "type": "uint256"
        }
      ],
      "name": "transferFrom",
      "outputs": [],
      "stateMutability": "nonpayable",
      "type": "function"
    },
    {
      "inputs": [
        {
          "internalType": "uint256",
          "name": "_listPrice",
          "type": "uint256"
        }
      ],
      "name": "updateListPrice",
      "outputs": [],
      "stateMutability": "payable",
      "type": "function"
    }
  ],
  "bytecode": "0x6080604052662386f26fc10000600a553480156200001c57600080fd5b506040518060400160405280600e81526020017f4e46544d61726b6574706c6163650000000000000000000000000000000000008152506040518060400160405280600481526020017f4e46544d0000000000000000000000000000000000000000000000000000000081525081600090816200009a919062000370565b508060019081620000ac919062000370565b50505033600760006101000a81548173ffffffffffffffffffffffffffffffffffffffff021916908373ffffffffffffffffffffffffffffffffffffffff16021790555062000457565b600081519050919050565b7f4e487b7100000000000000000000000000000000000000000000000000000000600052604160045260246000fd5b7f4e487b7100000000000000000000000000000000000000000000000000000000600052602260045260246000fd5b600060028204905060018216806200017857607f821691505b6020821081036200018e576200018d62000130565b5b50919050565b60008190508160005260206000209050919050565b60006020601f8301049050919050565b600082821b905092915050565b600060088302620001f87fffffffffffffffffffffffffffffffffffffffffffffffffffffffffffffffff82620001b9565b620002048683620001b9565b95508019841693508086168417925050509392505050565b6000819050919050565b6000819050919050565b6000620002516200024b62000245846200021c565b62000226565b6200021c565b9050919050565b6000819050919050565b6200026d8362000230565b620002856200027c8262000258565b848454620001c6565b825550505050565b600090565b6200029c6200028d565b620002a981848462000262565b505050565b5b81811015620002d157620002c560008262000292565b600181019050620002af565b5050565b601f8211156200032057620002ea8162000194565b620002f584620001a9565b8101602085101562000305578190505b6200031d6200031485620001a9565b830182620002ae565b50505b505050565b600082821c905092915050565b6000620003456000198460080262000325565b1980831691505092915050565b600062000360838362000332565b9150826002028217905092915050565b6200037b82620000f6565b67ffffffffffffffff81111562000397576200039662000101565b5b620003a382546200015f565b620003b0828285620002d5565b600060209050601f831160018114620003e85760008415620003d3578287015190505b620003df858262000352565b8655506200044f565b601f198416620003f88662000194565b60005b828110156200042257848901518255600182019150602085019450602081019050620003fb565b868310156200044257848901516200043e601f89168262000332565b8355505b6001600288020188555050505b505050505050565b61414680620004676000396000f3fe60806040526004361061014b5760003560e01c8063881f742c116100b6578063c322579c1161006f578063c322579c146104b2578063c457fb37146104ce578063c87b56dd1461050b578063cf4bb2eb14610548578063d1a88ae514610573578063e985e9c51461059e5761014b565b8063881f742c1461039b57806395d89b41146103dc57806398c3df16146104075780639b1225c414610444578063a22cb46514610460578063b88d4fde146104895761014b565b806356189236116101085780635618923614610270578063629cb2e41461029b5780636352211e146102c657806368f1945f1461030357806370a082311461032e57806372b3b6201461036b5761014b565b806301ffc9a71461015057806306fdde031461018d578063081812fc146101b8578063095ea7b3146101f557806323b872dd1461021e57806342842e0e14610247575b600080fd5b34801561015c57600080fd5b5061017760048036038101906101729190612ace565b6105db565b6040516101849190612b16565b60405180910390f35b34801561019957600080fd5b506101a26106bd565b6040516101af9190612bc1565b60405180910390f35b3480156101c457600080fd5b506101df60048036038101906101da9190612c19565b61074f565b6040516101ec9190612c87565b60405180910390f35b34801561020157600080fd5b5061021c60048036038101906102179190612cce565b610795565b005b34801561022a57600080fd5b5061024560048036038101906102409190612d0e565b6108ac565b005b34801561025357600080fd5b5061026e60048036038101906102699190612d0e565b61090c565b005b34801561027c57600080fd5b5061028561092c565b6040516102929190612d70565b60405180910390f35b3480156102a757600080fd5b506102b061093d565b6040516102bd9190612ee1565b60405180910390f35b3480156102d257600080fd5b506102ed60048036038101906102e89190612c19565b610d0c565b6040516102fa9190612c87565b60405180910390f35b34801561030f57600080fd5b50610318610d92565b6040516103259190612d70565b60405180910390f35b34801561033a57600080fd5b5061035560048036038101906103509190612f03565b610d9c565b6040516103629190612d70565b60405180910390f35b61038560048036038101906103809190613065565b610e53565b6040516103929190612d70565b60405180910390f35b3480156103a757600080fd5b506103c260048036038101906103bd9190612c19565b610f31565b6040516103d39594939291906130d0565b60405180910390f35b3480156103e857600080fd5b506103f1610fb4565b6040516103fe9190612bc1565b60405180910390f35b34801561041357600080fd5b5061042e60048036038101906104299190612c19565b611046565b60405161043b919061318b565b60405180910390f35b61045e60048036038101906104599190612c19565b61114e565b005b34801561046c57600080fd5b50610487600480360381019061048291906131d2565b61133f565b005b34801561049557600080fd5b506104b060048036038101906104ab91906132b3565b611355565b005b6104cc60048036038101906104c79190612c19565b6113b7565b005b3480156104da57600080fd5b506104f560048036038101906104f09190612c19565b611451565b6040516105029190612d70565b60405180910390f35b34801561051757600080fd5b50610532600480360381019061052d9190612c19565b611471565b60405161053f9190612bc1565b60405180910390f35b34801561055457600080fd5b5061055d611583565b60405161056a9190612ee1565b60405180910390f35b34801561057f57600080fd5b50610588611738565b604051610595919061318b565b60405180910390f35b3480156105aa57600080fd5b506105c560048036038101906105c09190613336565b611847565b6040516105d29190612b16565b60405180910390f35b60007f80ac58cd000000000000000000000000000000000000000000000000000000007bffffffffffffffffffffffffffffffffffffffffffffffffffffffff1916827bffffffffffffffffffffffffffffffffffffffffffffffffffffffff191614806106a657507f5b5e139f000000000000000000000000000000000000000000000000000000007bffffffffffffffffffffffffffffffffffffffffffffffffffffffff1916827bffffffffffffffffffffffffffffffffffffffffffffffffffffffff1916145b806106b657506106b5826118db565b5b9050919050565b6060600080546106cc906133a5565b80601f01602080910402602001604051908101604052809291908181526020018280546106f8906133a5565b80156107455780601f1061071a57610100808354040283529160200191610745565b820191906000526020600020905b81548152906001019060200180831161072857829003601f168201915b5050505050905090565b600061075a82611945565b6004600083815260200190815260200160002060009054906101000a900473ffffffffffffffffffffffffffffffffffffffff169050919050565b60006107a082610d0c565b90508073ffffffffffffffffffffffffffffffffffffffff168373ffffffffffffffffffffffffffffffffffffffff1603610810576040517f08c379a000000000000000000000000000000000000000000000000000000000815260040161080790613448565b60405180910390fd5b8073ffffffffffffffffffffffffffffffffffffffff1661082f611990565b73ffffffffffffffffffffffffffffffffffffffff16148061085e575061085d81610858611990565b611847565b5b61089d576040517f08c379a0000000000000000000000000000000000000000000000000000000008152600401610894906134da565b60405180910390fd5b6108a78383611998565b505050565b6108bd6108b7611990565b82611a51565b6108fc576040517f08c379a00000000000000000000000000000000000000000000000000000000081526004016108f39061356c565b60405180910390fd5b610907838383611ae6565b505050565b61092783838360405180602001604052806000815250611355565b505050565b60006109386008611ddf565b905090565b6060600061094b6008611ddf565b90506000805b82811015610a69573373ffffffffffffffffffffffffffffffffffffffff16600b600060018461098191906135bb565b815260200190815260200160002060010160009054906101000a900473ffffffffffffffffffffffffffffffffffffffff1673ffffffffffffffffffffffffffffffffffffffff161480610a4257503373ffffffffffffffffffffffffffffffffffffffff16600b60006001846109f891906135bb565b815260200190815260200160002060020160009054906101000a900473ffffffffffffffffffffffffffffffffffffffff1673ffffffffffffffffffffffffffffffffffffffff16145b15610a56578180610a52906135ef565b9250505b8080610a61906135ef565b915050610951565b5060008167ffffffffffffffff811115610a8657610a85612f3a565b5b604051908082528060200260200182016040528015610abf57816020015b610aac612a05565b815260200190600190039081610aa45790505b5090506000805b84811015610d01573373ffffffffffffffffffffffffffffffffffffffff16600b6000600184610af691906135bb565b815260200190815260200160002060010160009054906101000a900473ffffffffffffffffffffffffffffffffffffffff1673ffffffffffffffffffffffffffffffffffffffff161480610bb757503373ffffffffffffffffffffffffffffffffffffffff16600b6000600184610b6d91906135bb565b815260200190815260200160002060020160009054906101000a900473ffffffffffffffffffffffffffffffffffffffff1673ffffffffffffffffffffffffffffffffffffffff16145b15610cee57600b6000600183610bcd91906135bb565b81526020019081526020016000206040518060a0016040529081600082015481526020016001820160009054906101000a900473ffffffffffffffffffffffffffffffffffffffff1673ffffffffffffffffffffffffffffffffffffffff1673ffffffffffffffffffffffffffffffffffffffff1681526020016002820160009054906101000a900473ffffffffffffffffffffffffffffffffffffffff1673ffffffffffffffffffffffffffffffffffffffff1673ffffffffffffffffffffffffffffffffffffffff168152602001600382015481526020016004820160009054906101000a900460ff161515151581525050838381518110610cd457610cd3613637565b5b60200260200101819052508180610cea906135ef565b9250505b8080610cf9906135ef565b915050610ac6565b508194505050505090565b600080610d1883611ded565b9050600073ffffffffffffffffffffffffffffffffffffffff168173ffffffffffffffffffffffffffffffffffffffff1603610d89576040517f08c379a0000000000000000000000000000000000000000000000000000000008152600401610d80906136b2565b60405180910390fd5b80915050919050565b6000600a54905090565b60008073ffffffffffffffffffffffffffffffffffffffff168273ffffffffffffffffffffffffffffffffffffffff1603610e0c576040517f08c379a0000000000000000000000000000000000000000000000000000000008152600401610e0390613744565b60405180910390fd5b600360008373ffffffffffffffffffffffffffffffffffffffff1673ffffffffffffffffffffffffffffffffffffffff168152602001908152602001600020549050919050565b6000600a543414610e99576040517f08c379a0000000000000000000000000000000000000000000000000000000008152600401610e90906137d6565b60405180910390fd5b60008211610edc576040517f08c379a0000000000000000000000000000000000000000000000000000000008152600401610ed390613842565b60405180910390fd5b610ee66008611e2a565b610ef933610ef46008611ddf565b611e40565b610f0c610f066008611ddf565b84611e5e565b610f1f610f196008611ddf565b83611ecb565b610f296008611ddf565b905092915050565b600b6020528060005260406000206000915090508060000154908060010160009054906101000a900473ffffffffffffffffffffffffffffffffffffffff16908060020160009054906101000a900473ffffffffffffffffffffffffffffffffffffffff16908060030154908060040160009054906101000a900460ff16905085565b606060018054610fc3906133a5565b80601f0160208091040260200160405190810160405280929190818152602001828054610fef906133a5565b801561103c5780601f106110115761010080835404028352916020019161103c565b820191906000526020600020905b81548152906001019060200180831161101f57829003601f168201915b5050505050905090565b61104e612a05565b600b60008381526020019081526020016000206040518060a0016040529081600082015481526020016001820160009054906101000a900473ffffffffffffffffffffffffffffffffffffffff1673ffffffffffffffffffffffffffffffffffffffff1673ffffffffffffffffffffffffffffffffffffffff1681526020016002820160009054906101000a900473ffffffffffffffffffffffffffffffffffffffff1673ffffffffffffffffffffffffffffffffffffffff1673ffffffffffffffffffffffffffffffffffffffff168152602001600382015481526020016004820160009054906101000a900460ff1615151515815250509050919050565b61115781611451565b3414611198576040517f08c379a000000000000000000000000000000000000000000000000000000000815260040161118f906138d4565b60405180910390fd5b6000600b600083815260200190815260200160002060020160009054906101000a900473ffffffffffffffffffffffffffffffffffffffff16905060003390506001600b600085815260200190815260200160002060040160006101000a81548160ff02191690831515021790555080600b600085815260200190815260200160002060020160006101000a81548173ffffffffffffffffffffffffffffffffffffffff021916908373ffffffffffffffffffffffffffffffffffffffff1602179055506112666009611e2a565b611271308285611ae6565b61127b3084610795565b600760009054906101000a900473ffffffffffffffffffffffffffffffffffffffff1673ffffffffffffffffffffffffffffffffffffffff166108fc600a549081150290604051600060405180830381858888f193505050501580156112e5573d6000803e3d6000fd5b508173ffffffffffffffffffffffffffffffffffffffff166108fc600a543461130e91906138f4565b9081150290604051600060405180830381858888f19350505050158015611339573d6000803e3d6000fd5b50505050565b61135161134a611990565b838361200e565b5050565b611366611360611990565b83611a51565b6113a5576040517f08c379a000000000000000000000000000000000000000000000000000000000815260040161139c9061356c565b60405180910390fd5b6113b18484848461217a565b50505050565b600760009054906101000a900473ffffffffffffffffffffffffffffffffffffffff1673ffffffffffffffffffffffffffffffffffffffff163373ffffffffffffffffffffffffffffffffffffffff1614611447576040517f08c379a000000000000000000000000000000000000000000000000000000000815260040161143e90613974565b60405180910390fd5b80600a8190555050565b6000600b6000838152602001908152602001600020600301549050919050565b606061147c82611945565b600060066000848152602001908152602001600020805461149c906133a5565b80601f01602080910402602001604051908101604052809291908181526020018280546114c8906133a5565b80156115155780601f106114ea57610100808354040283529160200191611515565b820191906000526020600020905b8154815290600101906020018083116114f857829003601f168201915b5050505050905060006115266121d6565b9050600081510361153b57819250505061157e565b6000825111156115705780826040516020016115589291906139d0565b6040516020818303038152906040529250505061157e565b611579846121ed565b925050505b919050565b606060006115916008611ddf565b67ffffffffffffffff8111156115aa576115a9612f3a565b5b6040519080825280602002602001820160405280156115e357816020015b6115d0612a05565b8152602001906001900390816115c85790505b50905060005b6115f36008611ddf565b81101561173057600b600060018361160b91906135bb565b81526020019081526020016000206040518060a0016040529081600082015481526020016001820160009054906101000a900473ffffffffffffffffffffffffffffffffffffffff1673ffffffffffffffffffffffffffffffffffffffff1673ffffffffffffffffffffffffffffffffffffffff1681526020016002820160009054906101000a900473ffffffffffffffffffffffffffffffffffffffff1673ffffffffffffffffffffffffffffffffffffffff1673ffffffffffffffffffffffffffffffffffffffff168152602001600382015481526020016004820160009054906101000a900460ff16151515158152505082828151811061171257611711613637565b5b60200260200101819052508080611728906135ef565b9150506115e9565b508091505090565b611740612a05565b600b600061174e6008611ddf565b81526020019081526020016000206040518060a0016040529081600082015481526020016001820160009054906101000a900473ffffffffffffffffffffffffffffffffffffffff1673ffffffffffffffffffffffffffffffffffffffff1673ffffffffffffffffffffffffffffffffffffffff1681526020016002820160009054906101000a900473ffffffffffffffffffffffffffffffffffffffff1673ffffffffffffffffffffffffffffffffffffffff1673ffffffffffffffffffffffffffffffffffffffff168152602001600382015481526020016004820160009054906101000a900460ff161515151581525050905090565b6000600560008473ffffffffffffffffffffffffffffffffffffffff1673ffffffffffffffffffffffffffffffffffffffff16815260200190815260200160002060008373ffffffffffffffffffffffffffffffffffffffff1673ffffffffffffffffffffffffffffffffffffffff16815260200190815260200160002060009054906101000a900460ff16905092915050565b60007f01ffc9a7000000000000000000000000000000000000000000000000000000007bffffffffffffffffffffffffffffffffffffffffffffffffffffffff1916827bffffffffffffffffffffffffffffffffffffffffffffffffffffffff1916149050919050565b61194e81612255565b61198d576040517f08c379a0000000000000000000000000000000000000000000000000000000008152600401611984906136b2565b60405180910390fd5b50565b600033905090565b816004600083815260200190815260200160002060006101000a81548173ffffffffffffffffffffffffffffffffffffffff021916908373ffffffffffffffffffffffffffffffffffffffff160217905550808273ffffffffffffffffffffffffffffffffffffffff16611a0b83610d0c565b73ffffffffffffffffffffffffffffffffffffffff167f8c5be1e5ebec7d5bd14f71427d1e84f3dd0314c0f7b2291e5b200ac8c7c3b92560405160405180910390a45050565b600080611a5d83610d0c565b90508073ffffffffffffffffffffffffffffffffffffffff168473ffffffffffffffffffffffffffffffffffffffff161480611a9f5750611a9e8185611847565b5b80611add57508373ffffffffffffffffffffffffffffffffffffffff16611ac58461074f565b73ffffffffffffffffffffffffffffffffffffffff16145b91505092915050565b8273ffffffffffffffffffffffffffffffffffffffff16611b0682610d0c565b73ffffffffffffffffffffffffffffffffffffffff1614611b5c576040517f08c379a0000000000000000000000000000000000000000000000000000000008152600401611b5390613a66565b60405180910390fd5b600073ffffffffffffffffffffffffffffffffffffffff168273ffffffffffffffffffffffffffffffffffffffff1603611bcb576040517f08c379a0000000000000000000000000000000000000000000000000000000008152600401611bc290613af8565b60405180910390fd5b611bd88383836001612296565b8273ffffffffffffffffffffffffffffffffffffffff16611bf882610d0c565b73ffffffffffffffffffffffffffffffffffffffff1614611c4e576040517f08c379a0000000000000000000000000000000000000000000000000000000008152600401611c4590613a66565b60405180910390fd5b6004600082815260200190815260200160002060006101000a81549073ffffffffffffffffffffffffffffffffffffffff02191690556001600360008573ffffffffffffffffffffffffffffffffffffffff1673ffffffffffffffffffffffffffffffffffffffff168152602001908152602001600020600082825403925050819055506001600360008473ffffffffffffffffffffffffffffffffffffffff1673ffffffffffffffffffffffffffffffffffffffff16815260200190815260200160002060008282540192505081905550816002600083815260200190815260200160002060006101000a81548173ffffffffffffffffffffffffffffffffffffffff021916908373ffffffffffffffffffffffffffffffffffffffff160217905550808273ffffffffffffffffffffffffffffffffffffffff168473ffffffffffffffffffffffffffffffffffffffff167fddf252ad1be2c89b69c2b068fc378daa952ba7f163c4a11628f55a4df523b3ef60405160405180910390a4611dda83838360016123bc565b505050565b600081600001549050919050565b60006002600083815260200190815260200160002060009054906101000a900473ffffffffffffffffffffffffffffffffffffffff169050919050565b6001816000016000828254019250508190555050565b611e5a8282604051806020016040528060008152506123c2565b5050565b611e6782612255565b611ea6576040517f08c379a0000000000000000000000000000000000000000000000000000000008152600401611e9d90613b8a565b60405180910390fd5b80600660008481526020019081526020016000209081611ec69190613d56565b505050565b60006040518060a001604052808481526020013073ffffffffffffffffffffffffffffffffffffffff1681526020013373ffffffffffffffffffffffffffffffffffffffff16815260200183815260200160011515815250905080600b60008581526020019081526020016000206000820151816000015560208201518160010160006101000a81548173ffffffffffffffffffffffffffffffffffffffff021916908373ffffffffffffffffffffffffffffffffffffffff16021790555060408201518160020160006101000a81548173ffffffffffffffffffffffffffffffffffffffff021916908373ffffffffffffffffffffffffffffffffffffffff1602179055506060820151816003015560808201518160040160006101000a81548160ff021916908315150217905550905050612009333085611ae6565b505050565b8173ffffffffffffffffffffffffffffffffffffffff168373ffffffffffffffffffffffffffffffffffffffff160361207c576040517f08c379a000000000000000000000000000000000000000000000000000000000815260040161207390613e74565b60405180910390fd5b80600560008573ffffffffffffffffffffffffffffffffffffffff1673ffffffffffffffffffffffffffffffffffffffff16815260200190815260200160002060008473ffffffffffffffffffffffffffffffffffffffff1673ffffffffffffffffffffffffffffffffffffffff16815260200190815260200160002060006101000a81548160ff0219169083151502179055508173ffffffffffffffffffffffffffffffffffffffff168373ffffffffffffffffffffffffffffffffffffffff167f17307eab39ab6107e8899845ad3d59bd9653f200f220920489ca2b5937696c318360405161216d9190612b16565b60405180910390a3505050565b612185848484611ae6565b6121918484848461241d565b6121d0576040517f08c379a00000000000000000000000000000000000000000000000000000000081526004016121c790613f06565b60405180910390fd5b50505050565b606060405180602001604052806000815250905090565b60606121f882611945565b60006122026121d6565b90506000815111612222576040518060200160405280600081525061224d565b8061222c846125a4565b60405160200161223d9291906139d0565b6040516020818303038152906040525b915050919050565b60008073ffffffffffffffffffffffffffffffffffffffff1661227783611ded565b73ffffffffffffffffffffffffffffffffffffffff1614159050919050565b60018111156123b657600073ffffffffffffffffffffffffffffffffffffffff168473ffffffffffffffffffffffffffffffffffffffff161461232a5780600360008673ffffffffffffffffffffffffffffffffffffffff1673ffffffffffffffffffffffffffffffffffffffff168152602001908152602001600020600082825461232291906138f4565b925050819055505b600073ffffffffffffffffffffffffffffffffffffffff168373ffffffffffffffffffffffffffffffffffffffff16146123b55780600360008573ffffffffffffffffffffffffffffffffffffffff1673ffffffffffffffffffffffffffffffffffffffff16815260200190815260200160002060008282546123ad91906135bb565b925050819055505b5b50505050565b50505050565b6123cc8383612672565b6123d9600084848461241d565b612418576040517f08c379a000000000000000000000000000000000000000000000000000000000815260040161240f90613f06565b60405180910390fd5b505050565b600061243e8473ffffffffffffffffffffffffffffffffffffffff1661288f565b15612597578373ffffffffffffffffffffffffffffffffffffffff1663150b7a02612467611990565b8786866040518563ffffffff1660e01b81526004016124899493929190613f7b565b6020604051808303816000875af19250505080156124c557506040513d601f19601f820116820180604052508101906124c29190613fdc565b60015b612547573d80600081146124f5576040519150601f19603f3d011682016040523d82523d6000602084013e6124fa565b606091505b50600081510361253f576040517f08c379a000000000000000000000000000000000000000000000000000000000815260040161253690613f06565b60405180910390fd5b805181602001fd5b63150b7a0260e01b7bffffffffffffffffffffffffffffffffffffffffffffffffffffffff1916817bffffffffffffffffffffffffffffffffffffffffffffffffffffffff19161491505061259c565b600190505b949350505050565b6060600060016125b3846128b2565b01905060008167ffffffffffffffff8111156125d2576125d1612f3a565b5b6040519080825280601f01601f1916602001820160405280156126045781602001600182028036833780820191505090505b509050600082602001820190505b600115612667578080600190039150507f3031323334353637383961626364656600000000000000000000000000000000600a86061a8153600a858161265b5761265a614009565b5b04945060008503612612575b819350505050919050565b600073ffffffffffffffffffffffffffffffffffffffff168273ffffffffffffffffffffffffffffffffffffffff16036126e1576040517f08c379a00000000000000000000000000000000000000000000000000000000081526004016126d890614084565b60405180910390fd5b6126ea81612255565b1561272a576040517f08c379a0000000000000000000000000000000000000000000000000000000008152600401612721906140f0565b60405180910390fd5b612738600083836001612296565b61274181612255565b15612781576040517f08c379a0000000000000000000000000000000000000000000000000000000008152600401612778906140f0565b60405180910390fd5b6001600360008473ffffffffffffffffffffffffffffffffffffffff1673ffffffffffffffffffffffffffffffffffffffff16815260200190815260200160002060008282540192505081905550816002600083815260200190815260200160002060006101000a81548173ffffffffffffffffffffffffffffffffffffffff021916908373ffffffffffffffffffffffffffffffffffffffff160217905550808273ffffffffffffffffffffffffffffffffffffffff16600073ffffffffffffffffffffffffffffffffffffffff167fddf252ad1be2c89b69c2b068fc378daa952ba7f163c4a11628f55a4df523b3ef60405160405180910390a461288b6000838360016123bc565b5050565b6000808273ffffffffffffffffffffffffffffffffffffffff163b119050919050565b600080600090507a184f03e93ff9f4daa797ed6e38ed64bf6a1f0100000000000000008310612910577a184f03e93ff9f4daa797ed6e38ed64bf6a1f010000000000000000838161290657612905614009565b5b0492506040810190505b6d04ee2d6d415b85acef8100000000831061294d576d04ee2d6d415b85acef8100000000838161294357612942614009565b5b0492506020810190505b662386f26fc10000831061297c57662386f26fc10000838161297257612971614009565b5b0492506010810190505b6305f5e10083106129a5576305f5e100838161299b5761299a614009565b5b0492506008810190505b61271083106129ca5761271083816129c0576129bf614009565b5b0492506004810190505b606483106129ed57606483816129e3576129e2614009565b5b0492506002810190505b600a83106129fc576001810190505b80915050919050565b6040518060a0016040528060008152602001600073ffffffffffffffffffffffffffffffffffffffff168152602001600073ffffffffffffffffffffffffffffffffffffffff168152602001600081526020016000151581525090565b6000604051905090565b600080fd5b600080fd5b60007fffffffff0000000000000000000000000000000000000000000000000000000082169050919050565b612aab81612a76565b8114612ab657600080fd5b50565b600081359050612ac881612aa2565b92915050565b600060208284031215612ae457612ae3612a6c565b5b6000612af284828501612ab9565b91505092915050565b60008115159050919050565b612b1081612afb565b82525050565b6000602082019050612b2b6000830184612b07565b92915050565b600081519050919050565b600082825260208201905092915050565b60005b83811015612b6b578082015181840152602081019050612b50565b60008484015250505050565b6000601f19601f8301169050919050565b6000612b9382612b31565b612b9d8185612b3c565b9350612bad818560208601612b4d565b612bb681612b77565b840191505092915050565b60006020820190508181036000830152612bdb8184612b88565b905092915050565b6000819050919050565b612bf681612be3565b8114612c0157600080fd5b50565b600081359050612c1381612bed565b92915050565b600060208284031215612c2f57612c2e612a6c565b5b6000612c3d84828501612c04565b91505092915050565b600073ffffffffffffffffffffffffffffffffffffffff82169050919050565b6000612c7182612c46565b9050919050565b612c8181612c66565b82525050565b6000602082019050612c9c6000830184612c78565b92915050565b612cab81612c66565b8114612cb657600080fd5b50565b600081359050612cc881612ca2565b92915050565b60008060408385031215612ce557612ce4612a6c565b5b6000612cf385828601612cb9565b9250506020612d0485828601612c04565b9150509250929050565b600080600060608486031215612d2757612d26612a6c565b5b6000612d3586828701612cb9565b9350506020612d4686828701612cb9565b9250506040612d5786828701612c04565b9150509250925092565b612d6a81612be3565b82525050565b6000602082019050612d856000830184612d61565b92915050565b600081519050919050565b600082825260208201905092915050565b6000819050602082019050919050565b612dc081612be3565b82525050565b6000612dd182612c46565b9050919050565b612de181612dc6565b82525050565b612df081612afb565b82525050565b60a082016000820151612e0c6000850182612db7565b506020820151612e1f6020850182612dd8565b506040820151612e326040850182612dd8565b506060820151612e456060850182612db7565b506080820151612e586080850182612de7565b50505050565b6000612e6a8383612df6565b60a08301905092915050565b6000602082019050919050565b6000612e8e82612d8b565b612e988185612d96565b9350612ea383612da7565b8060005b83811015612ed4578151612ebb8882612e5e565b9750612ec683612e76565b925050600181019050612ea7565b5085935050505092915050565b60006020820190508181036000830152612efb8184612e83565b905092915050565b600060208284031215612f1957612f18612a6c565b5b6000612f2784828501612cb9565b91505092915050565b600080fd5b600080fd5b7f4e487b7100000000000000000000000000000000000000000000000000000000600052604160045260246000fd5b612f7282612b77565b810181811067ffffffffffffffff82111715612f9157612f90612f3a565b5b80604052505050565b6000612fa4612a62565b9050612fb08282612f69565b919050565b600067ffffffffffffffff821115612fd057612fcf612f3a565b5b612fd982612b77565b9050602081019050919050565b82818337600083830152505050565b600061300861300384612fb5565b612f9a565b90508281526020810184848401111561302457613023612f35565b5b61302f848285612fe6565b509392505050565b600082601f83011261304c5761304b612f30565b5b813561305c848260208601612ff5565b91505092915050565b6000806040838503121561307c5761307b612a6c565b5b600083013567ffffffffffffffff81111561309a57613099612a71565b5b6130a685828601613037565b92505060206130b785828601612c04565b9150509250929050565b6130ca81612dc6565b82525050565b600060a0820190506130e56000830188612d61565b6130f260208301876130c1565b6130ff60408301866130c1565b61310c6060830185612d61565b6131196080830184612b07565b9695505050505050565b60a0820160008201516131396000850182612db7565b50602082015161314c6020850182612dd8565b50604082015161315f6040850182612dd8565b5060608201516131726060850182612db7565b5060808201516131856080850182612de7565b50505050565b600060a0820190506131a06000830184613123565b92915050565b6131af81612afb565b81146131ba57600080fd5b50565b6000813590506131cc816131a6565b92915050565b600080604083850312156131e9576131e8612a6c565b5b60006131f785828601612cb9565b9250506020613208858286016131bd565b9150509250929050565b600067ffffffffffffffff82111561322d5761322c612f3a565b5b61323682612b77565b9050602081019050919050565b600061325661325184613212565b612f9a565b90508281526020810184848401111561327257613271612f35565b5b61327d848285612fe6565b509392505050565b600082601f83011261329a57613299612f30565b5b81356132aa848260208601613243565b91505092915050565b600080600080608085870312156132cd576132cc612a6c565b5b60006132db87828801612cb9565b94505060206132ec87828801612cb9565b93505060406132fd87828801612c04565b925050606085013567ffffffffffffffff81111561331e5761331d612a71565b5b61332a87828801613285565b91505092959194509250565b6000806040838503121561334d5761334c612a6c565b5b600061335b85828601612cb9565b925050602061336c85828601612cb9565b9150509250929050565b7f4e487b7100000000000000000000000000000000000000000000000000000000600052602260045260246000fd5b600060028204905060018216806133bd57607f821691505b6020821081036133d0576133cf613376565b5b50919050565b7f4552433732313a20617070726f76616c20746f2063757272656e74206f776e6560008201527f7200000000000000000000000000000000000000000000000000000000000000602082015250565b6000613432602183612b3c565b915061343d826133d6565b604082019050919050565b6000602082019050818103600083015261346181613425565b9050919050565b7f4552433732313a20617070726f76652063616c6c6572206973206e6f7420746f60008201527f6b656e206f776e6572206f7220617070726f76656420666f7220616c6c000000602082015250565b60006134c4603d83612b3c565b91506134cf82613468565b604082019050919050565b600060208201905081810360008301526134f3816134b7565b9050919050565b7f4552433732313a2063616c6c6572206973206e6f7420746f6b656e206f776e6560008201527f72206f7220617070726f76656400000000000000000000000000000000000000602082015250565b6000613556602d83612b3c565b9150613561826134fa565b604082019050919050565b6000602082019050818103600083015261358581613549565b9050919050565b7f4e487b7100000000000000000000000000000000000000000000000000000000600052601160045260246000fd5b60006135c682612be3565b91506135d183612be3565b92508282019050808211156135e9576135e861358c565b5b92915050565b60006135fa82612be3565b91507fffffffffffffffffffffffffffffffffffffffffffffffffffffffffffffffff820361362c5761362b61358c565b5b600182019050919050565b7f4e487b7100000000000000000000000000000000000000000000000000000000600052603260045260246000fd5b7f4552433732313a20696e76616c696420746f6b656e2049440000000000000000600082015250565b600061369c601883612b3c565b91506136a782613666565b602082019050919050565b600060208201905081810360008301526136cb8161368f565b9050919050565b7f4552433732313a2061646472657373207a65726f206973206e6f74206120766160008201527f6c6964206f776e65720000000000000000000000000000000000000000000000602082015250565b600061372e602983612b3c565b9150613739826136d2565b604082019050919050565b6000602082019050818103600083015261375d81613721565b9050919050565b7f5072696365206d75737420626520657175616c20746f206c697374207072696360008201527f6500000000000000000000000000000000000000000000000000000000000000602082015250565b60006137c0602183612b3c565b91506137cb82613764565b604082019050919050565b600060208201905081810360008301526137ef816137b3565b9050919050565b7f5072696365206d7573742062652067726561746572207468616e203000000000600082015250565b600061382c601c83612b3c565b9150613837826137f6565b602082019050919050565b6000602082019050818103600083015261385b8161381f565b9050919050565b7f507269636520666f722074686520746f6b656e206d757374206265207061796560008201527f6400000000000000000000000000000000000000000000000000000000000000602082015250565b60006138be602183612b3c565b91506138c982613862565b604082019050919050565b600060208201905081810360008301526138ed816138b1565b9050919050565b60006138ff82612be3565b915061390a83612be3565b92508282039050818111156139225761392161358c565b5b92915050565b7f4f6e6c79206f776e65722063616e20757064617465206c697374207072696365600082015250565b600061395e602083612b3c565b915061396982613928565b602082019050919050565b6000602082019050818103600083015261398d81613951565b9050919050565b600081905092915050565b60006139aa82612b31565b6139b48185613994565b93506139c4818560208601612b4d565b80840191505092915050565b60006139dc828561399f565b91506139e8828461399f565b91508190509392505050565b7f4552433732313a207472616e736665722066726f6d20696e636f72726563742060008201527f6f776e6572000000000000000000000000000000000000000000000000000000602082015250565b6000613a50602583612b3c565b9150613a5b826139f4565b604082019050919050565b60006020820190508181036000830152613a7f81613a43565b9050919050565b7f4552433732313a207472616e7366657220746f20746865207a65726f2061646460008201527f7265737300000000000000000000000000000000000000000000000000000000602082015250565b6000613ae2602483612b3c565b9150613aed82613a86565b604082019050919050565b60006020820190508181036000830152613b1181613ad5565b9050919050565b7f45524337323155524953746f726167653a2055524920736574206f66206e6f6e60008201527f6578697374656e7420746f6b656e000000000000000000000000000000000000602082015250565b6000613b74602e83612b3c565b9150613b7f82613b18565b604082019050919050565b60006020820190508181036000830152613ba381613b67565b9050919050565b60008190508160005260206000209050919050565b60006020601f8301049050919050565b600082821b905092915050565b600060088302613c0c7fffffffffffffffffffffffffffffffffffffffffffffffffffffffffffffffff82613bcf565b613c168683613bcf565b95508019841693508086168417925050509392505050565b6000819050919050565b6000613c53613c4e613c4984612be3565b613c2e565b612be3565b9050919050565b6000819050919050565b613c6d83613c38565b613c81613c7982613c5a565b848454613bdc565b825550505050565b600090565b613c96613c89565b613ca1818484613c64565b505050565b5b81811015613cc557613cba600082613c8e565b600181019050613ca7565b5050565b601f821115613d0a57613cdb81613baa565b613ce484613bbf565b81016020851015613cf3578190505b613d07613cff85613bbf565b830182613ca6565b50505b505050565b600082821c905092915050565b6000613d2d60001984600802613d0f565b1980831691505092915050565b6000613d468383613d1c565b9150826002028217905092915050565b613d5f82612b31565b67ffffffffffffffff811115613d7857613d77612f3a565b5b613d8282546133a5565b613d8d828285613cc9565b600060209050601f831160018114613dc05760008415613dae578287015190505b613db88582613d3a565b865550613e20565b601f198416613dce86613baa565b60005b82811015613df657848901518255600182019150602085019450602081019050613dd1565b86831015613e135784890151613e0f601f891682613d1c565b8355505b6001600288020188555050505b505050505050565b7f4552433732313a20617070726f766520746f2063616c6c657200000000000000600082015250565b6000613e5e601983612b3c565b9150613e6982613e28565b602082019050919050565b60006020820190508181036000830152613e8d81613e51565b9050919050565b7f4552433732313a207472616e7366657220746f206e6f6e20455243373231526560008201527f63656976657220696d706c656d656e7465720000000000000000000000000000602082015250565b6000613ef0603283612b3c565b9150613efb82613e94565b604082019050919050565b60006020820190508181036000830152613f1f81613ee3565b9050919050565b600081519050919050565b600082825260208201905092915050565b6000613f4d82613f26565b613f578185613f31565b9350613f67818560208601612b4d565b613f7081612b77565b840191505092915050565b6000608082019050613f906000830187612c78565b613f9d6020830186612c78565b613faa6040830185612d61565b8181036060830152613fbc8184613f42565b905095945050505050565b600081519050613fd681612aa2565b92915050565b600060208284031215613ff257613ff1612a6c565b5b600061400084828501613fc7565b91505092915050565b7f4e487b7100000000000000000000000000000000000000000000000000000000600052601260045260246000fd5b7f4552433732313a206d696e7420746f20746865207a65726f2061646472657373600082015250565b600061406e602083612b3c565b915061407982614038565b602082019050919050565b6000602082019050818103600083015261409d81614061565b9050919050565b7f4552433732313a20746f6b656e20616c7265616479206d696e74656400000000600082015250565b60006140da601c83612b3c565b91506140e5826140a4565b602082019050919050565b60006020820190508181036000830152614109816140cd565b905091905056fea26469706673582212203ad4ce2919425030298d91d72a4d55f548295c58df377d922dd9ba1908ae03d264736f6c63430008110033",
  "linkReferences": {},
  "deployedLinkReferences": {}
}